:020000040000fa
:080000000001040000000000f3
:020000040000fa
:04000800e80100000b
:020000040000fa
:04000c00c801000027
:020000040000fa
:04001000cc0100001f
:020000040000fa
:04001400d001000017
:020000040000fa
:04001800d40100000f
:020000040000fa
:04001c00e8010000f7
:020000040000fa
:04002000e8010000f3
:020000040000fa
:04002400e8010000ef
:020000040000fa
:04002800e8010000eb
:020000040000fa
:04002c00e8010000e7
:020000040000fa
:04003000e8010000e3
:020000040000fa
:040034006403000061
:020000040000fa
:04003800e8010000db
:020000040000fa
:04003c00e8010000d7
:020000040000fa
:04004000e8010000d3
:020000040000fa
:04004400e8010000cf
:020000040000fa
:04004800e8010000cb
:020000040000fa
:04004c00e8010000c7
:020000040000fa
:04005000e8010000c3
:020000040000fa
:04005400e8010000bf
:020000040000fa
:04005800e8010000bb
:020000040000fa
:04005c00ea010000b5
:020000040000fa
:04006000e8010000b3
:020000040000fa
:04006400e8010000af
:020000040000fa
:04006800e8010000ab
:020000040000fa
:04006c00e8010000a7
:020000040000fa
:04007000e8010000a3
:020000040000fa
:04007400e80100009f
:020000040000fa
:04007800e80100009b
:020000040000fa
:04007c00f20200008c
:020000040000fa
:0400800080020000fa
:020000040000fa
:04008400e80100008f
:020000040000fa
:04008800e80100008b
:020000040000fa
:04008c00e801000087
:020000040000fa
:04009000e801000083
:020000040000fa
:04009400e80100007f
:020000040000fa
:04009800e80100007b
:020000040000fa
:04009c00e801000077
:020000040000fa
:0400a000e801000073
:020000040000fa
:0400a400e80100006f
:020000040000fa
:0400a800e80100006b
:020000040000fa
:0400ac00e801000067
:020000040000fa
:0400b000e801000063
:020000040000fa
:0400b400e80100005f
:020000040000fa
:0400b800e80100005b
:020000040000fa
:0400bc00e801000057
:020000040000fa
:0400c000e801000053
:020000040000fa
:0400c400e80100004f
:020000040000fa
:0400c800e80100004b
:020000040000fa
:0400cc00e801000047
:020000040000fa
:0400d000e801000043
:020000040000fa
:0400d400e80100003f
:020000040000fa
:0400d800e80100003b
:020000040000fa
:04010800e80100000a
:020000040000fa
:04010c00d801000016
:020000040000fa
:04011000dc0100000e
:020000040000fa
:04011400e001000006
:020000040000fa
:04011800e4010000fe
:020000040000fa
:04011c00e8010000f6
:020000040000fa
:04012000e8010000f2
:020000040000fa
:04012400e8010000ee
:020000040000fa
:04012800e8010000ea
:020000040000fa
:04012c00e8010000e6
:020000040000fa
:04013000e8010000e2
:020000040000fa
:04013400e8010000de
:020000040000fa
:04013800e8010000da
:020000040000fa
:04013c00e8010000d6
:020000040000fa
:04014000e8010000d2
:020000040000fa
:04014400e8010000ce
:020000040000fa
:04014800e8010000ca
:020000040000fa
:04014c00e8010000c6
:020000040000fa
:04015000e8010000c2
:020000040000fa
:04015400e8010000be
:020000040000fa
:04015800e8010000ba
:020000040000fa
:04015c00e8010000b6
:020000040000fa
:04016000e8010000b2
:020000040000fa
:04016400e8010000ae
:020000040000fa
:04016800e8010000aa
:020000040000fa
:04016c00e8010000a6
:020000040000fa
:04017000e8010000a2
:020000040000fa
:04017400e80100009e
:020000040000fa
:04017800e80100009a
:020000040000fa
:04017c00e801000096
:020000040000fa
:04018000e801000092
:020000040000fa
:04018400e80100008e
:020000040000fa
:04018800e80100008a
:020000040000fa
:04018c00e801000086
:020000040000fa
:04019000e801000082
:020000040000fa
:04019400e80100007e
:020000040000fa
:04019800e80100007a
:020000040000fa
:04019c00e801000076
:020000040000fa
:0401a000e801000072
:020000040000fa
:0401a400e80100006e
:020000040000fa
:0401a800e80100006a
:020000040000fa
:0401ac00e801000066
:020000040000fa
:0401b000e801000062
:020000040000fa
:0401b400e80100005e
:020000040000fa
:0401b800e80100005a
:020000040000fa
:0401bc00e801000056
:020000040000fa
:0401c000e801000052
:020000040000fa
:0401c400e80100004e
:020000040000fa
:0401c800e80100004a
:020000040000fa
:0401cc00e801000046
:020000040000fa
:0401d000e801000042
:020000040000fa
:0401d400e80100003e
:020000040000fa
:0401d800e80100003a
:020000040000fa
:100200002fa720000e7f22000e01880000000000b2
:10021000000020000000e000020032000001200089
:100220002002880014000700110207000000e0000f
:1002300003003a0000bb200001002000020037004c
:100240000000200001002000810f7000010032003a
:1002500014000700000020000000e000020032004f
:10026000000002000000000066080200000000001c
:100270000040da000000fe004440a9000001200018
:100280000000e0000300320000002000a001880010
:100290004440a800000006008a1f78008b1f7800e9
:1002a0000000060091018800800478000000eb0047
:1002b0001a003700e284440032a0b4009905ba0065
:1002c000e284440032a0b4009906ba00e2844400fb
:1002d00032a0b4000006eb00476fde00fd07b2005d
:1002e000636ce10003003a00ebff07000000eb0045
:1002f0000a003700606ce10004003a00005deb008a
:100300008b05e900fdff3e00040037006168e10055
:10031000010032000086eb000b00070019c7ba008d
:100320001905ba000e04e00003003a000a00e000dc
:10033000e0ff3a0000000600fe07b2009e018800c0
:100340008a047800f5ff3700395dba008b05e900b3
:100350000c003200295dba008b05e900080032006c
:100360000c00e00003003a00e284440032a0b40034
:10037000f5ff370019ddba008b05e900faff3a00f6
:100380008904e800e184440032a0b40000000600c3
:100390008020a900ffff37008060a900ffff370021
:1003a0008040a900ffff37008080a900ffff3700d1
:1003b0008020a900ffff37008060a900ffff370001
:1003c0008040a900ffff37008080a900ffff3700b1
:1003d000ffff3700809fbe00821f78000842ab00fd
:1003e00005003a0008a2ab0003003a0000108000ac
:1003f0000e08a8003d0037000842ab0023003a0079
:1004000008a2ab00210032000ec8bf000008a30004
:1004100005003200001080000ce8b7000e08a900ab
:100420000e28a800310037000018a3000c0032008d
:100430000cc8bf000080fb000110800000004000dd
:100440006281200000004100014878008040eb00fc
:10045000114098000e28a9000e48a800230037007c
:100460000028a30021003200011080000cc8bf004a
:100470000080fb000000400062812000000041007d
:10048000114098000e48a900180037000842ab0040
:100490001600320008a2ab0014003a000cc8bf00de
:1004a0000080fb008000400062812000e2c07800f4
:1004b0008180fb0011108800011080000782a800d5
:1004c0000802ab00feff3a000000400061812000fe
:1004d00000804000104090000080fb001010880059
:1004e0000782a8000802ab00feff3a0008c2a9007c
:1004f00085a0a9004f0178004f00be000040060013
:1005000000a0fe003400f800881f780008002000da
:10051000a80188004f04780086c0a9000608e20000
:10052000070034000228ec000a08ed005040880063
:100530000a003b00300020005040880022003700b5
:100540000228ed000a08ec0050408800e30f50003c
:10055000020034000a28ef000c00370050408000f1
:10056000e10f50000e00320003003c000000e000ec
:100570000600320018003700e20f50000d00320074
:10058000e30f500014003a000f003700d602a90014
:10059000d622a800d642a900d662a8000e003700d5
:1005a000d602a900d622a800d642a800d662a90089
:1005b00009003700d602a800d622a900d642a8001a
:1005c000d662a90004003700d602a800d622a900ee
:1005d000d642a900d662a8003400f9000080fe00cf
:1005e0000040060000a0fe003400f800881f7800dc
:1005f00008002000a80188004f04780086a0a90008
:100600000408e20007003d000028ed000808ed00a6
:10061000404088000a003b00300020004040880035
:10062000220037000028ec000808ec004040880059
:10063000e30f5000020034000828ef000c003700e0
:1006400040408000e10f50000e00320003003c00eb
:100650000000e0000600320018003700e20f5000f2
:100660000d003200e30f500014003a000f00370075
:10067000d682a900d6a2a800d6c2a900d6e2a800b8
:100680000e003700d682a900d6a2a800d6c2a800c4
:10069000d6e2a90009003700d682a800d6a2a90098
:1006a000d6c2a800d6e2a90004003700d682a8006e
:1006b000d6a2a900d6c2a900d6e2a8003400f9004b
:1006c0000080fe00004006003600f800809fbe005b
:1006d000829fbe00849fbe00869fbe00881f780058
:1006e0003400f80000002000a00188008460a90008
:1006f00080408000e10f50002c00320003003c00dd
:100700000000e000060032008f003700e20f5000ca
:1007100049003200e30f50008b003a0069003700b7
:100720001208e2000c003a0050282000100888004f
:1007300080002000fc03070030518800c00020002a
:10074000f903070070518800e2e2a80010002000c1
:10075000904088007c003700e0f1200010088800fd
:1007600080002000f003070068a32000000c780040
:10077000c0002000ec030700f051880062a22000b6
:1007800061a120001201780098085100e2a2200027
:10079000e880400092081000e2e2a9001228ef0071
:1007a0001000200080408800670037001208e20037
:1007b0000c003a005028200010088800900020000b
:1007c000d903070040518800d0002000d60307005d
:1007d00080518800e302a8001000200090408800ab
:1007e00059003700e0f12000100888009000200038
:1007f000cd03070088a32000000c7800d000200063
:10080000c90307000052880082a2200081a12000b5
:10081000120178009808510002a32000e8804000ef
:1008200092081000e302a9001228ef002000200027
:1008300080408800440037001208e2000c003a00b3
:100840005028200010088800a0002000b6030700f0
:1008500050518800e0002000b30307009051880049
:10086000e802a80010002000904088003600370001
:10087000e0f1200010088800a0002000aa03070073
:10088000a8a32000000c7800e0002000a6030700c9
:1008900010528800a2a22000a1a12000120178001d
:1008a0009808510022a32000e88040009208100020
:1008b000e802a9001228ef003000200080408800e4
:1008c000210037001208e2000c003a0050282000f6
:1008d00010088800b00020009303070060518800d2
:1008e000f000200090030700a0518800e822a80033
:1008f000100020009040880013003700e0f1200035
:1009000010088800b000200087030700c8a320005b
:10091000000c7800f00020008303070020528800bc
:10092000c2a22000c1a12000120178009808510045
:1009300042a32000e880400092081000e822a900ad
:100940001228ef001028ef003400f9004f0478005f
:100950004f03be004f02be004f01be004f00be005d
:100960003600f900004006000a00fa00e20f5000cd
:1009700034003e00a0408000e10f50000300320030
:10098000e20f500011003a000c003700c320200095
:100990000300e00001003a000040da000c02e2002f
:1009a000020035001422ef000de2a8000f42ab0058
:1009b0000d003a000f42a8000b0037006321200011
:1009c0000300e00001003a000040da001602e200f5
:1009d000020035001e22ef0017e2a8001942ab000a
:1009e00001003a001942a800820178000b0037008c
:1009f0003102fb00e10f500004003a000f22ab006f
:100a0000feff3a0084108800030037001922ab0073
:100a1000feff3a00d41088008301e9000300e000e3
:100a2000f3ff3a00e10f500003003a000f02ab0061
:100a3000feff32000b0037001902ab00feff320050
:100a40000800370033002000b3bf9f00c0bf9f00e5
:100a5000d1bf9f00e2bf9f006a805700910107004d
:100a60006fb99700020078000080fa0000000600cd
:100a700000000500889fbe008a9fbe008c1f780082
:100a8000970007009e00330003866c006450e1006d
:100a90002e0032006420e100330032006150e1009a
:100aa0002f0032006120e1003100320085855500c1
:100ab000eb07b00009002000080420000500370003
:100ac0000804440089844c000a00310006034300f6
:100ad00087834b000001530081815b00f8ff3300e6
:100ae0000203be000800a0000804440089844c00f2
:100af000f6ff3900c639dd008301730001003200c2
:100b0000130020008904d1000884d3000998a300b1
:100b1000050032000800a7000300a0008904d100ee
:100b20000884d3008b05e8008904d1000884d30031
:100b30000001eb000281d2002e00070001f0a100ad
:100b40000cf0a70001f0a000760037006420e1005f
:100b5000780032000801be000200be00f7ff370037
:100b60006120e100730032006000b800f3ff37003d
:100b70000000200001f82700f0ff37000001be0050
:100b8000420007000470a70003f0a10003f8a300cf
:100b900013003a006509b100100032000900350069
:100ba0006928e1000200350001002800000005006e
:100bb00000004000818048008502e900fcff3a0007
:100bc00000000600f88f4200050035008100d100ca
:100bd0000080d3008502e800fcff3a000000060018
:100be0008000eb00000005004f89de0082017800e4
:100bf0005300370081002000618055000b003d004c
:100c00000b00200061fe2f000100e1001d003400f8
:100c100082817100610164008904d1000884d300dd
:100c20000000e800faff3a00710020006100640053
:100c300003007000020060000900320061044400fb
:100c4000e0844c000988a500050032008b05e8000f
:100c50006808e10002003a008904d1000884d3004a
:100c6000f20f20000258e10005003d00c75ddd00e5
:100c7000f907b200898075000800780000000600be
:100c80000bf827008b00780000000500c70ade0083
:100c9000f107b200f50fb20008003200e1cf4200c8
:100ca000020032000170a00024000500810f7000d6
:100cb000010032000408050044000500810f7000a7
:100cc00002003a00140005008502e900000040001f
:100cd00081c04800fcff3b000170a000240005001b
:100ce0000004be00e9ff07000003be000405be00cb
:100cf0000200be00e5ff0700844f750000000600fb
:100d00000200be006450e100050036006420e100ee
:100d1000020036000968a30001003a000800be0086
:100d20000160a0004f0678004f05be004f04be00d2
:100d300000000600f0ff2f00f1ff2700f9ff370049
:100d4000881f7800030478000300e00007003d00de
:100d500060001000e080180060011900e0811900b7
:100d600002003b0001f02d000300370004000700e3
:100d700008f0a70001f0a0004f0478000000060072
:100d8000889fbe008a9fbe0000827000040271002e
:100d900004827100260032000004be000200be0082
:100da0006011b8006b092000950220000182cf007d
:100db0000a0039000541b1000082cf000700390068
:100dc0000541b1000982cf00040039000541b1009e
:100dd0000882cf00010039000541b10005425200f0
:100de000120032000a003b00828171006101640040
:100df0008100d1000080d3008984d3000884d3000f
:100e00008b05e8000442e800f7ff3a0007003700ce
:100e10000804440089844c00000048008180480098
:100e20008b05e9000442e900f9ff3a0071ff070071
:100e30004f05be004f04be0000000600889fbe00a4
:100e40000004be00050037000000fb0089007800a8
:100e500012000700e10f4000040032003840780023
:100e60000004e000f8ff3a000000eb004f04be0071
:100e700000000600881f780021a52000efff070072
:100e80000004780021a52000a00020000300070036
:100e9000080078004f04780000000600889fbe001c
:100ea00001047800b80090008084eb000118a300d2
:100eb0003a003200180190000198a30002003a00a5
:100ec0000200e00035003a000190a00031049800d3
:100ed00080047800f90fb2000200e00002003a003e
:100ee00028009000000c7800ea8f540005003a00ba
:100ef0000178a30003003a0088007800d0002000a9
:100f0000e6ff070018009000d8009000810f500005
:100f10000b0032000000e800100498001800780070
:100f200009487800000ce80011c0b300c0a62000fa
:100f300001487800ea8f540018003a000500370095
:100f400088007800094078001700070080047800c6
:100f500012003700380090000088a3000f00320014
:100f600018019000a8009000480090007efe070045
:100f700098009000810f500004003200380090006b
:100f80000003b300300498008084eb000000eb0005
:100f90001004980028009000000c780009007800e8
:100fa0004f04be00000006000200fa00889fbe0049
:100fb000a0ff9f0001047800380090000068a300a3
:100fc00033003a00e200600005003a000003b3007d
:100fd00030049800110498000080eb002e003700c8
:100fe000d80490000900e00006003a00120020003a
:100ff000e6805700480090005bfe07001904980047
:1010000023003700a80090000100e00008003a002b
:10101000f1a6200021049800010c78002100200096
:1010200051049800110498000030a000300498008a
:1010300018019000a8009000480090004afe0700a8
:10104000280090008080eb0011049800aff8970012
:1010500001487800000ce8002ff89700ea4f500094
:101060000b003a00380090000088a300080032000e
:1010700018019000a8009000480090003afe070078
:101080000000eb0010049800a8009000010c78000c
:10109000aff897000100fb004f04be000080fa008b
:0c10a0000000060000c0da00000006009e
:020000040000fa
:1010ac0049200000616d0000206100006e200000ee
:1010bc00652d000070750000636b00002e000000b1
:020000040000fa
:1010cc00e4874700889fbe008a9fbe008c9fbe00ad
:1010dc008e1f78004081200002202000000141007a
:1010ec008000eb0001287800820f5000fdff3a00d1
:1010fc00d80107006f010700cb010700870007002c
:10110c00de0007002e0107006085280056ff07004f
:10111c000040eb00960007000040eb00ca000700ff
:10112c000000eb00e60007000000eb0002010700e6
:10113c000045eb008005eb000006eb000a40780050
:10114c008af79f00898120008986e8006487440023
:10115c006181200011447800804f5400040032005b
:10116c000100e8000048eb00084078008000070010
:10117c008ff0970099cf100006003200190078000c
:10118c00e30c60009940780081f79f0001407800e3
:10119c00ad0007001d0078008c0f50000c003200d1
:1011ac00813e2000810f500002003400810e780037
:1011bc000400370081c12f00810f500001003d0059
:1011cc00810e78001d0678000c007800bc0007002a
:1011dc001e0078008b0f50000c003200813e200066
:1011ec00810f500002003400010f7800040037001a
:1011fc0081c12f00810f500001003d00010f7800cc
:10120c009e0578000b007800cb000700e800070073
:10121c00f0408800e8000700004188002082200090
:10122c00904f150008003200900078006188600033
:10123c00104578000a08a30002003200e9000700fc
:10124c0001003700f30007000000eb00110107005c
:10125c0020418800100020000e010700304188005a
:10126c00200020000b0107004041880030002000c6
:10127c0008010700504188004000200005010700cc
:10128c006041880050002000020107007041880076
:10129c0060002000ff0007008041880070002000e3
:1012ac00fc000700904188000000eb00ef000700f5
:1012bc00a041880010002000ec000700b04188001d
:1012cc0020002000e9000700c04188003000200009
:1012dc00e6000700d041880040002000e300070032
:1012ec00e041880050002000e0000700f041880039
:1012fc0060002000dd000700004288007000200024
:10130c00da000700104288009099230001002000a9
:10131c0037010700084078008dff3700c4c2a900d0
:10132c00c4e2a900c522a900c582a900c542a90032
:10133c00c5a2a900c5c2a900c5e2a900c0c2a900e6
:10134c00c0e2a900c122a900c182a900c142a90022
:10135c00c1a2a900c1c2a900c1e2a900d022a90062
:10136c00cc22a900d042a900cc42a9000000060062
:10137c00e1006000c608dd00221680000260a100ba
:10138c0002817000221688000080fb00c600dd0080
:10139c000108b200221680000270a10002817000c8
:1013ac0022168800c700dd000120b2002216800042
:1013bc000290a1000281700022168800c300de009a
:1013cc00e1806000cc08dd002216800002c0a10084
:1013dc000281700022168800c400de00e1806000eb
:1013ec00ca08dd002216800002a0a1000281700054
:1013fc0022168800c500de00e1806000cd08dd000b
:10140c002216800002d0a1000281700022168800f2
:10141c00c600de00e1806000ce08dd0022168000f0
:10142c0002e0a10002817000221688004700de0055
:10143c004f00dd002116800001f0a100810070003a
:10144c002116880000000600e10060008180400049
:10145c00821680000210a1000281700082168800a2
:10146c000000d00064006000811680000120a10003
:10147c00810070008116880000000600d602a900c9
:10148c00d622a900d642a900d662a900d682a9000c
:10149c00d6a2a900d6c2a900d6e2a900d202a90000
:1014ac00d222a900d242a900d262a900d282a900fc
:1014bc00d2a2a900d2c2a900d2e2a9000000060063
:1014cc00800078000100e00006003a0021e1a9004c
:1014dc00d602a900d622a900d642a900d662a9003c
:1014ec001400370021e1a900314088002021ef00d1
:1014fc00000320002021b7001821ef000100780024
:10150c0000f0a7000000ea00cf80de00b3fd07006a
:10151c000001be00000020001176240052fd0700df
:10152c0093fd0700e008880086c0a9008ec0a800c3
:10153c0021e1a80000000600800078000100e00016
:10154c0006003a001fe1a900d682a900d6a2a90084
:10155c00d6c2a900d6e2a900140037001fe1a900e9
:10156c00214088001e21ef00000320001e21b7003f
:10157c001421ef000100780000f0a7000000ea0041
:10158c00cf80de0095fd07000001be0000002000aa
:10159c001176240034fd070075fd0700d008880083
:1015ac0086a0a9008ea0a8001fe1a80000000600dc
:1015bc001040800000000600004080000000060083
:1015cc00e2e2a900e302a900e802a900e822a900ce
:1015dc00dee2a900df02a900e402a900e422a900ce
:1015ec00000006000421ef00f0fc2f000401b600ff
:1015fc000040a000200888000021ef0050282000a7
:10160c00100888008460a9008c60a80005e1a8007f
:10161c000000060005e1a900e822a900e802d500b7
:10162c0061006000411780000100a1008100700082
:10163c004117880040178000610060004800dd0001
:10164c00111780000180a100810070001117880023
:10165c00e202d5000008b200111780000170a10051
:10166c008100700011178800000006008000eb005c
:10167c00e70f500005003e000000400061a2200072
:10168c0061007800f1ff200080805000010078009c
:10169c00000006008000eb00e70f500003003e0046
:1016ac000000400061a12000e100780001007800fa
:1016bc0000000600a1e2a9008560a9008d60a900c8
:1016cc00a802a800a822a800a842a900a862a90004
:1016dc00a882a900a8a2a900a8c2a900a8e2a900f2
:1016ec00a902a900a922a900a942a900a962a900de
:1016fc00a982a900a9a2a900a9c2a900a9e2a900ce
:10170c0030052e002015880000bc20001015880024
:10171c0090c12f00001588000000060080007800a2
:10172c000000eb00ef8f500009003e0031158800df
:10173c00a022a80030092000010020002c00070086
:10174c00a022a900a002ab00feff32000014800012
:04175c000000060083
:020000040000fa
:101760001608000000020000000000000c08000045
:101770000400000000000000140800000200000047
:101780000200000002000000000800000c00000041
:1017900000000000160a00003000000000000000f9
:1017a000100800000400000000000000460a0000cd
:1017b00026000000020000006d0a0000006d0a0013
:1017c00009000000000200006f0a0000006f0a001c
:1017d0000e020100000000000000000000000000f8
:1017e0000602020000000000460a00006c0a000029
:0c17f000060000000000000000000000e7
:020000040000fa
:1017fc00f03fb1000180b10006003500ee03090096
:10180c0000000000403fb1000180b100fbff3d0033
:10181c001000b000203fb00002003500008009002d
:08182c000000000000000600ae
:020000040000fa
:1018340000302c0030108800f00120005010880087
:101844008620ef000c68ef000e08a9000e28a900fe
:101854000e48a9008da0a80000000600700020001a
:10186400f010880000f02f00b0108800d07d2f0009
:08187400c0108800000006000e
:020000040000fa
:0200000401f009
:04000000e6bf000057
:020000040000fa
:0200000401f009
:04000400ff7f00007a
:020000040000fa
:0200000401f009
:040008007fff000076
:020000040000fa
:0200000401f009
:04001400ffff0000ea
:00000001FF
